:100000000C9458000C9480000C9480000C94800098
:100010000C9480000C9480000C9480000C94800060
:100020000C9480000C9480000C9480000C94800050
:100030000C9480000C9480000C9480000C94800040
:100040000C94D4030C9480000C94A2030C947C03B5
:100050000C9480000C9480000C9480000C94800020
:100060000C941E040C948000000000002500280061
:100070002B00040404040404040402020202020229
:10008000030303030303010204081020408001025C
:1000900004081020010204081020000000080002DB
:1000A00001000003040700000000000000004C05F0
:1000B00011241FBECFEFD8E0DEBFCDBF11E0A0E01E
:1000C000B1E0E2EBFDE002C005900D92A832B1076D
:1000D000D9F722E0A8E2B1E001C01D92AA37B20729
:1000E000E1F710E0C8E5D0E004C02197FE010E94CE
:1000F000CC06C735D107C9F70E9494050C94D706E2
:100100000C94000090E0FC01E656FF4F2491FC01A6
:10011000EA57FF4F3491FC01EE58FF4FE491EE2374
:10012000B1F1222339F1233091F038F42130A9F0D4
:10013000223001F584B58F7D12C0273091F0283030
:10014000A1F02430B9F4809180008F7D03C08091AC
:1001500080008F77809380000DC084B58F7784BD39
:1001600009C08091B0008F7703C08091B0008F7D6F
:100170008093B000F0E0EE0FFF1FE859FF4FA5910C
:10018000B4918FB7F894EC913E2B3C938FBF0895B8
:10019000CF92DF92EF92FF920F931F93CF93DF9353
:1001A0006C017A018B01C0E0D0E0CE15DF0589F04B
:1001B000D8016D918D01D601ED91FC910190F081F6
:1001C000E02DC6010995892B11F47E0102C021960C
:1001D000ECCFC701DF91CF911F910F91FF90EF906E
:1001E000DF90CF900895FC01918D828D981761F07A
:1001F000828DDF01A80FB11D5D968C91928D9F5F5E
:100200009F73928F90E008958FEF9FEF0895FC0108
:10021000918D828D981731F0828DE80FF11D858DBB
:1002200090E008958FEF9FEF0895FC01918D228D4E
:10023000892F90E0805C9F4F821B91098F739927D3
:10024000089585EC91E00E94150121E0892B09F4C5
:1002500020E0822F0895FC01848DDF01A80FB11DDD
:10026000A35ABF4F2C91848D90E001968F739927EC
:10027000848FA689B7892C93A089B1898C918064D9
:100280008C93938D848D981306C00288F389E02D9A
:1002900080818F7D80830895EF92FF920F931F934B
:1002A000CF93DF93EC0181E0888F9B8D8C8D981329
:1002B00005C0E889F989808185FD24C0F62E0B8D63
:1002C00010E00F5F1F4F0F731127E02E8C8DE81287
:1002D0000CC00FB607FCFACFE889F989808185FF49
:1002E000F5CFCE010E942B01F1CF8B8DFE01E80FDF
:1002F000F11DE35AFF4FF0820B8FEA89FB89808161
:10030000806207C0EE89FF896083E889F98980816E
:100310008064808381E090E0DF91CF911F910F9105
:10032000FF90EF900895CF93DF93EC01888D8823A1
:10033000C9F0EA89FB89808185FD05C0A889B98952
:100340008C9186FD0FC00FB607FCF5CF808185FF2D
:10035000F2CFA889B9898C9185FFEDCFCE010E949B
:100360002B01E7CFDF91CF91089580E090E0892BBA
:1003700029F00E94210181110C94000008953FB7DB
:10038000F8948091BA019091BB01A091BC01B09109
:10039000BD0126B5A89B05C02F3F19F00196A11DF0
:1003A000B11D3FBFBA2FA92F982F8827820F911D0B
:1003B000A11DB11DBC01CD0142E0660F771F881F52
:1003C000991F4A95D1F708958F929F92AF92BF924D
:1003D000CF92DF92EF92FF926B017C010E94BF01EE
:1003E0004B015C01C114D104E104F104F1F00E945D
:1003F000BF01DC01CB0188199909AA09BB09883E14
:100400009340A105B10570F321E0C21AD108E108BB
:10041000F10888EE880E83E0981EA11CB11CC1145F
:10042000D104E104F10419F7DDCFFF90EF90DF90E4
:10043000CF90BF90AF909F908F90089585ED80935F
:10044000BC008091BC0084FDFCCF1092C0010895D7
:1004500040914A01262F30E0240F311D2132310511
:10046000DCF42091C0012430C9F4FC0180E090E06C
:10047000861758F430914A012191DC01A85DBE4FE6
:10048000A30FB11D2C930196F3CF80914A01680F01
:1004900060934A0180E0089581E0089582E0089524
:1004A000089581E090E03091C4012091C30132179A
:1004B00010F480E090E091958195910908958091E4
:1004C000C4019091C301891730F48F5F8093C401F8
:1004D00080E090E008958FEF9FEF08958091C30131
:1004E00090E02091C401821B91090895CF92DF9280
:1004F000EF92FF920F931F93CF93DF937C01262FF0
:10050000972F8A0180919301882391F0C62FD72FCE
:100510006E01C40ED51ECC15DD0571F06991D701B1
:10052000ED91FC910190F081E02DC7010995F3CF89
:10053000642F822F0E942802C801DF91CF911F9162
:100540000F91FF90EF90DF90CF900895CF93DF93BE
:100550001F92CDB7DEB76983209193012223D1F09A
:100560002091C101203240F021E030E0FC013383D2
:10057000228380E090E015C08091C201E82FF0E076
:10058000EC56FE4F998190838F5F8093C2018093D8
:10059000C10105C061E0CE0101960E94280281E000
:1005A00090E00F90DF91CF910895CF93FC01C4812B
:1005B00021E020939301C093B4011092C2011092E4
:1005C000C1018385682B82E692E00E94A602809199
:1005D000C101813208F046C09091C0019111FCCF59
:1005E00092E09093C00191E09093BF019FEF9093B0
:1005F00092011092910180939001A4E9B1E020E76B
:1006000031E0F9019E2F921B981718F49D91919358
:10061000F9CF10926F0180916F01CC0FC82BC0935E
:100620006F018091BE01813061F41092BE01809112
:100630006F018093BB008091BC0083FDF8CF85ECF7
:1006400001C085EE8093BC008091C0018230E1F34F
:10065000809192018F3F31F080919201803211F0B0
:10066000809192011092C2011092C10110929301E7
:10067000CF9108950F931F93CF938C01C62F0E94A3
:10068000D5026C2F6460C8010E94D5026C2F6B7F6D
:10069000C8010E94D50283EC90E00197F1F7CF9159
:1006A0001F910F910895FF920F931F93CF93DF93A4
:1006B0001F92CDB7DEB78C01F62E962F907F692F53
:1006C000642BC80149830E943A0380E1F89EB0017F
:1006D00011244981642BC8010F90DF91CF911F91A4
:1006E0000F91FF900C943A0341E00E94530381E084
:1006F00090E008950E94D2061F920F920FB60F92BB
:1007000011242F933F934F935F936F937F938F9316
:100710009F93AF93BF93EF93FF9385EC91E00E947B
:100720002B01FF91EF91BF91AF919F918F917F919D
:100730006F915F914F913F912F910F900FBE0F904E
:100740001F9018951F920F920FB60F9211242F939E
:100750008F939F93EF93FF93E091D501F091D60192
:100760008081E091DB01F091DC0182FD12C090817B
:100770008091DE018F5F8F732091DF01821751F02E
:10078000E091DE01F0E0EB53FE4F958F8093DE01A8
:1007900001C08081FF91EF919F918F912F910F90D8
:1007A0000FBE0F901F9018951F920F920FB60F92C9
:1007B00011242F933F938F939F93AF93BF93809177
:1007C000B6019091B701A091B801B091B9013091F3
:1007D000B50123E0230F2D3720F40196A11DB11D93
:1007E00005C026E8230F0296A11DB11D2093B50177
:1007F0008093B6019093B701A093B801B093B9016B
:100800008091BA019091BB01A091BC01B091BD0152
:100810000196A11DB11D8093BA019093BB01A093D5
:10082000BC01B093BD01BF91AF919F918F913F915A
:100830002F910F900FBE0F901F9018951F920F923F
:100840000FB60F9211242F933F934F935F936F93A3
:100850007F938F939F93AF93BF93EF93FF93809179
:10086000B900887F803609F49CC068F5883209F4A5
:100870005BC090F4803109F454C038F4882309F443
:10088000F6C0883009F44DC0F6C0883109F44CC078
:10089000803209F45DC0EFC0803409F468C048F4C8
:1008A000803309F455C0883309F0E5C08093920184
:1008B000D8C0803509F44FC0883509F45DC088344C
:1008C00009F0D9C0D6C0883909F4C7C0A8F4883760
:1008D00009F467C038F4883609F463C0803709F436
:1008E00060C0C9C0883809F4B8C0803909F45FC055
:1008F000803809F0C0C05BC0803B09F486C038F482
:10090000803A09F466C0883A09F47FC0B4C0803CDC
:1009100009F4A7C0883C09F4A4C0883B09F48AC044
:10092000AAC080916F0110C09091910180919001B7
:10093000981770F5E091910181E08E0F80939101FD
:10094000F0E0E059FE4F80818093BB0085EC86C0CB
:10095000809392018EC0E091910181E08E0F80938F
:1009600091018091BB00F0E0E059FE4F80839091AF
:100970009101809190016EC0E091910181E08E0F14
:10098000809391018091BB00F0E0E059FE4F80839D
:100990008091BF0181116DC081E08093BE0184EA26
:1009A00061C083E08093C00110926E01CFCF80912F
:1009B0006E01803208F051C0E0916E0181E08E0F2F
:1009C00080936E018091BB00F0E0E25BFE4F80837C
:1009D000BDCF85EC8093BC001092C00180916E0168
:1009E000803230F4E0916E01F0E0E25BFE4F108265
:1009F00060916E0170E0E0914C01F0914D018EE448
:100A000091E0099510926E0136C084E08093C00198
:100A100010924B0110924A01E0914801F091490176
:100A2000099580914A01811105C081E080934A01B6
:100A300010922801E0914B0181E08E0F80934B01D1
:100A4000F0E0E85DFE4F80818093BB0090914B0108
:100A500080914A01981708F479CF85E88093BC000B
:100A60000AC085EC8093BC001092C00104C01092B3
:100A700092010E941E02FF91EF91BF91AF919F9151
:100A80008F917F916F915F914F913F912F910F9037
:100A90000FBE0F901F901895E5ECF1E013821282C3
:100AA00088EE93E0A0E0B0E084839583A683B783CB
:100AB00024E031E03183208325EC30E03587248742
:100AC00024EC30E03787268720EC30E0318B208B18
:100AD00021EC30E0338B228B22EC30E0358B248B01
:100AE00026EC30E0378B268B118E128E138E148EEF
:100AF000E2E6F2E01382128284839583A683B783B1
:100B000084E191E091838083EEE6F2E01382128229
:100B100084E291E0918380838FE3848380E1818705
:100B200082E0828713860895789484B5826084BDBC
:100B300084B5816084BD85B5826085BD85B58160E1
:100B400085BD80916E00816080936E00109281005F
:100B5000809181008260809381008091810081601A
:100B600080938100809180008160809380008091DB
:100B7000B10084608093B1008091B0008160809367
:100B8000B00080917A00846080937A0080917A002E
:100B9000826080937A0080917A00816080937A00ED
:100BA00080917A00806880937A001092C100109240
:100BB000C4011092C3011092C2011092C10110929F
:100BC000C00181E08093BF011092BE0182E10E94CA
:100BD000820083E10E9482008091B9008E7F809321
:100BE000B9008091B9008D7F8093B90088E480932B
:100BF000B80085E48093BC00109273028091780263
:100C0000823018F098E0909373028093760262E34A
:100C100070E080E090E00E94E401609179028EE64D
:100C200092E00E94D50268EE73E080E090E00E94BE
:100C3000E40160E38EE692E00E943A03CBE4D6E45E
:100C4000CE010197F1F760E38EE692E00E943A034D
:100C50002197F1F760E38EE692E00E943A0383E584
:100C600092E00197F1F760E28EE692E00E943A038B
:100C700060917302606240E08EE692E00E9453034E
:100C800084E08093740240E06CE08EE692E00E9483
:100C9000530340E061E08EE692E00E945303CBE311
:100CA000DFE1CE010197F1F712E01093750240E009
:100CB00066E08EE692E00E94530340E062E08EE63A
:100CC00092E00E9453032197F1F788E08093790224
:100CD00060E08EE692E00E94D502E091D501F091AD
:100CE000D6011083E091D101F091D2011082E09100
:100CF000D301F091D4018FEC80831092DD01E0915B
:100D0000D901F091DA0186E08083E091D701F0917A
:100D1000D801808180618083E091D701F091D80172
:100D2000808188608083E091D701F091D801808133
:100D300080688083E091D701F091D80180818F7D18
:100D40008083CBE3DFE185EC91E00E941501892BE4
:100D500001F164E670E080E090E00E94E40140E090
:100D600061E08EE692E00E945303CE010197F1F715
:100D700085EC91E00E9415011816190654F485ECD3
:100D800091E00E94F300682F8EE692E00E947403C7
:100D9000EFCF0E94B501D7CFEE0FFF1F0590F49162
:100DA000E02D099481E090E0F8940C94D706F89433
:020DB000FFCF73
:100DB200000000004C01C8001501F3000701930177
:100DC20000000000A60276026E025F02510250028B
:080DD200000000007403C800DA
:107E0000112484B714BE81FFF0D085E080938100F7
:107E100082E08093C00088E18093C10086E0809377
:107E2000C20080E18093C4008EE0C9D0259A86E02C
:107E300020E33CEF91E0309385002093840096BBD3
:107E4000B09BFECF1D9AA8958150A9F7CC24DD24C4
:107E500088248394B5E0AB2EA1E19A2EF3E0BF2EE7
:107E6000A2D0813461F49FD0082FAFD0023811F036
:107E7000013811F484E001C083E08DD089C08234E0
:107E800011F484E103C0853419F485E0A6D080C0E4
:107E9000853579F488D0E82EFF2485D0082F10E0AE
:107EA000102F00270E291F29000F111F8ED06801E7
:107EB0006FC0863521F484E090D080E0DECF843638
:107EC00009F040C070D06FD0082F6DD080E0C81688
:107ED00080E7D80618F4F601B7BEE895C0E0D1E017
:107EE00062D089930C17E1F7F0E0CF16F0E7DF06D8
:107EF00018F0F601B7BEE89568D007B600FCFDCFD4
:107F0000A601A0E0B1E02C9130E011968C91119780
:107F100090E0982F8827822B932B1296FA010C0160
:107F200087BEE89511244E5F5F4FF1E0A038BF0790
:107F300051F7F601A7BEE89507B600FCFDCF97BE46
:107F4000E89526C08437B1F42ED02DD0F82E2BD052
:107F50003CD0F601EF2C8F010F5F1F4F84911BD097
:107F6000EA94F801C1F70894C11CD11CFA94CF0C13
:107F7000D11C0EC0853739F428D08EE10CD085E9AC
:107F80000AD08FE07ACF813511F488E018D01DD067
:107F900080E101D065CF982F8091C00085FFFCCF94
:107FA0009093C60008958091C00087FFFCCF809118
:107FB000C00084FD01C0A8958091C6000895E0E648
:107FC000F0E098E1908380830895EDDF803219F02E
:107FD00088E0F5DFFFCF84E1DECF1F93182FE3DFCA
:107FE0001150E9F7F2DF1F91089580E0E8DFEE27F6
:047FF000FF270994CA
:027FFE00040479
:0400000300007E007B
:00000001FF
